{
  "contractName": "DappTokenSale",
  "abi": [
    {
      "constant": true,
      "inputs": [],
      "name": "tokenSold",
      "outputs": [
        {
          "name": "",
          "type": "uint256"
        }
      ],
      "payable": false,
      "stateMutability": "view",
      "type": "function"
    },
    {
      "constant": true,
      "inputs": [],
      "name": "tokenContract",
      "outputs": [
        {
          "name": "",
          "type": "address"
        }
      ],
      "payable": false,
      "stateMutability": "view",
      "type": "function"
    },
    {
      "constant": true,
      "inputs": [],
      "name": "tokenPrice",
      "outputs": [
        {
          "name": "",
          "type": "uint256"
        }
      ],
      "payable": false,
      "stateMutability": "view",
      "type": "function"
    },
    {
      "inputs": [
        {
          "name": "_tokenContract",
          "type": "address"
        },
        {
          "name": "_tokenPrice",
          "type": "uint256"
        }
      ],
      "payable": false,
      "stateMutability": "nonpayable",
      "type": "constructor"
    },
    {
      "anonymous": false,
      "inputs": [
        {
          "indexed": false,
          "name": "_buyer",
          "type": "address"
        },
        {
          "indexed": false,
          "name": "_amount",
          "type": "uint256"
        }
      ],
      "name": "Sell",
      "type": "event"
    },
    {
      "constant": false,
      "inputs": [
        {
          "name": "_numberOfTokens",
          "type": "uint256"
        }
      ],
      "name": "buyTokens",
      "outputs": [],
      "payable": true,
      "stateMutability": "payable",
      "type": "function"
    },
    {
      "constant": false,
      "inputs": [],
      "name": "endSale",
      "outputs": [],
      "payable": false,
      "stateMutability": "nonpayable",
      "type": "function"
    }
  ],
  "bytecode": "0x608060405234801561001057600080fd5b506040516040806107f98339810180604052810190808051906020019092919080519060200190929190505050336000806101000a81548173ffffffffffffffffffffffffffffffffffffffff021916908373ffffffffffffffffffffffffffffffffffffffff16021790555081600160006101000a81548173ffffffffffffffffffffffffffffffffffffffff021916908373ffffffffffffffffffffffffffffffffffffffff160217905550806002819055505050610723806100d66000396000f30060806040526004361061006d576000357c0100000000000000000000000000000000000000000000000000000000900463ffffffff1680633610724e14610072578063380d831b14610092578063519ee19e146100a957806355a373d6146100d45780637ff9b5961461012b575b600080fd5b61009060048036038101908080359060200190929190505050610156565b005b34801561009e57600080fd5b506100a76103fe565b005b3480156100b557600080fd5b506100be610695565b6040518082815260200191505060405180910390f35b3480156100e057600080fd5b506100e961069b565b604051808273ffffffffffffffffffffffffffffffffffffffff1673ffffffffffffffffffffffffffffffffffffffff16815260200191505060405180910390f35b34801561013757600080fd5b506101406106c1565b6040518082815260200191505060405180910390f35b610162816002546106c7565b3414151561016f57600080fd5b80600160009054906101000a900473ffffffffffffffffffffffffffffffffffffffff1673ffffffffffffffffffffffffffffffffffffffff166370a08231306040518263ffffffff167c0100000000000000000000000000000000000000000000000000000000028152600401808273ffffffffffffffffffffffffffffffffffffffff1673ffffffffffffffffffffffffffffffffffffffff168152602001915050602060405180830381600087803b15801561022d57600080fd5b505af1158015610241573d6000803e3d6000fd5b505050506040513d602081101561025757600080fd5b81019080805190602001909291905050501015151561027557600080fd5b600160009054906101000a900473ffffffffffffffffffffffffffffffffffffffff1673ffffffffffffffffffffffffffffffffffffffff1663a9059cbb33836040518363ffffffff167c0100000000000000000000000000000000000000000000000000000000028152600401808373ffffffffffffffffffffffffffffffffffffffff1673ffffffffffffffffffffffffffffffffffffffff16815260200182815260200192505050602060405180830381600087803b15801561033a57600080fd5b505af115801561034e573d6000803e3d6000fd5b505050506040513d602081101561036457600080fd5b8101908080519060200190929190505050151561038057600080fd5b806003600082825401925050819055507f5e5e995ce3133561afceaa51a9a154d5db228cd7525d34df5185582c18d3df093382604051808373ffffffffffffffffffffffffffffffffffffffff1673ffffffffffffffffffffffffffffffffffffffff1681526020018281526020019250505060405180910390a150565b6000809054906101000a900473ffffffffffffffffffffffffffffffffffffffff1673ffffffffffffffffffffffffffffffffffffffff163373ffffffffffffffffffffffffffffffffffffffff1614151561045957600080fd5b600160009054906101000a900473ffffffffffffffffffffffffffffffffffffffff1673ffffffffffffffffffffffffffffffffffffffff1663a9059cbb6000809054906101000a900473ffffffffffffffffffffffffffffffffffffffff16600160009054906101000a900473ffffffffffffffffffffffffffffffffffffffff1673ffffffffffffffffffffffffffffffffffffffff166370a08231306040518263ffffffff167c0100000000000000000000000000000000000000000000000000000000028152600401808273ffffffffffffffffffffffffffffffffffffffff1673ffffffffffffffffffffffffffffffffffffffff168152602001915050602060405180830381600087803b15801561057657600080fd5b505af115801561058a573d6000803e3d6000fd5b505050506040513d60208110156105a057600080fd5b81019080805190602001909291905050506040518363ffffffff167c0100000000000000000000000000000000000000000000000000000000028152600401808373ffffffffffffffffffffffffffffffffffffffff1673ffffffffffffffffffffffffffffffffffffffff16815260200182815260200192505050602060405180830381600087803b15801561063657600080fd5b505af115801561064a573d6000803e3d6000fd5b505050506040513d602081101561066057600080fd5b8101908080519060200190929190505050151561067c57600080fd5b3373ffffffffffffffffffffffffffffffffffffffff16ff5b60035481565b600160009054906101000a900473ffffffffffffffffffffffffffffffffffffffff1681565b60025481565b6000808214806106e6575082828385029250828115156106e357fe5b04145b15156106f157600080fd5b929150505600a165627a7a72305820b6654c060ae8805589d69e41149f23f563903dc416ded26a1416b9f8559511c20029",
  "source": "pragma solidity ^0.4.22;\n\n/**\n * The DappTokenSale contract does this and that...\n */\n\n\nimport \"./DappToken.sol\";\n\ncontract DappTokenSale {\n\n\taddress admin;\n\tDappToken public tokenContract;\n\tuint256 public tokenPrice;\n\tuint256 public tokenSold;\n\n\tevent Sell(address _buyer, uint256 _amount);\n\t\n\n    constructor(DappToken _tokenContract, uint256 _tokenPrice) public {\n\n\t  \t// Assign an admin\n\t  \tadmin = msg.sender;\n\n\t  \t// Token contract\n\t  \ttokenContract = _tokenContract;\n\t  \t// Token price\n\t  \ttokenPrice = _tokenPrice;\n\t}\n\n\tfunction multiply (uint x, uint y) internal pure returns(uint res) {\n\t\t\n\t\trequire (y == 0 || (res = x * y) / y == x);\n\t\t\n\t}\n\t\n\n\tfunction buyTokens (uint256 _numberOfTokens) public payable {\n\n\t\t// Require that value is equal to tokens\n\t\trequire(msg.value == multiply(_numberOfTokens, tokenPrice));\n\t\t// Require that the contract has enough tokens\n\t\trequire (tokenContract.balanceOf(address(this)) >= _numberOfTokens);\n\t\trequire (tokenContract.transfer(msg.sender, _numberOfTokens));\n\t\t\n\t\t// keep track of the tokenSold\n\t\ttokenSold += _numberOfTokens;\n\n\t\temit Sell(msg.sender, _numberOfTokens);\n\t}\n\n\tfunction endSale () public {\n\t\t// Require admin\n\n\t\trequire (msg.sender == admin);\n\t\t\n\t\t// Transfer remaining dapp tokens to admin\n\n\t\trequire (tokenContract.transfer(admin, tokenContract.balanceOf(address(this))));\n\t\t\n\t\t// Destroy contract\n\t\tselfdestruct(msg.sender);\n\t}\n\t\n\t\n}\n",
  "sourcePath": "C:/crypto/tokenico/contracts/DappTokenSale.sol",
  "compiler": {
    "name": "solc",
    "version": "0.4.22+commit.4cb486ee.Emscripten.clang"
  },
  "schemaVersion": "3.3.4",
  "updatedAt": "2021-04-19T14:43:47.509Z",
  "devdoc": {
    "methods": {}
  },
  "userdoc": {
    "methods": {}
  }
}